{
  "contractName": "milieToken",
  "abi": [
    {
      "constant": true,
      "inputs": [],
      "name": "name",
      "outputs": [
        {
          "name": "",
          "type": "string"
        }
      ],
      "payable": false,
      "stateMutability": "view",
      "type": "function"
    },
    {
      "constant": true,
      "inputs": [],
      "name": "totalSupply",
      "outputs": [
        {
          "name": "",
          "type": "uint256"
        }
      ],
      "payable": false,
      "stateMutability": "view",
      "type": "function"
    },
    {
      "constant": true,
      "inputs": [],
      "name": "decimals",
      "outputs": [
        {
          "name": "",
          "type": "uint8"
        }
      ],
      "payable": false,
      "stateMutability": "view",
      "type": "function"
    },
    {
      "constant": true,
      "inputs": [],
      "name": "symbol",
      "outputs": [
        {
          "name": "",
          "type": "string"
        }
      ],
      "payable": false,
      "stateMutability": "view",
      "type": "function"
    },
    {
      "inputs": [],
      "payable": false,
      "stateMutability": "nonpayable",
      "type": "constructor"
    },
    {
      "anonymous": false,
      "inputs": [
        {
          "indexed": true,
          "name": "owner",
          "type": "address"
        },
        {
          "indexed": true,
          "name": "spender",
          "type": "address"
        },
        {
          "indexed": false,
          "name": "value",
          "type": "uint256"
        }
      ],
      "name": "Approval",
      "type": "event"
    },
    {
      "anonymous": false,
      "inputs": [
        {
          "indexed": true,
          "name": "from",
          "type": "address"
        },
        {
          "indexed": true,
          "name": "to",
          "type": "address"
        },
        {
          "indexed": false,
          "name": "value",
          "type": "uint256"
        }
      ],
      "name": "Transfer",
      "type": "event"
    },
    {
      "constant": true,
      "inputs": [
        {
          "name": "owner",
          "type": "address"
        }
      ],
      "name": "balanceOf",
      "outputs": [
        {
          "name": "balance",
          "type": "uint256"
        }
      ],
      "payable": false,
      "stateMutability": "view",
      "type": "function"
    },
    {
      "constant": false,
      "inputs": [
        {
          "name": "to",
          "type": "address"
        },
        {
          "name": "amount",
          "type": "uint256"
        }
      ],
      "name": "transfer",
      "outputs": [
        {
          "name": "success",
          "type": "bool"
        }
      ],
      "payable": false,
      "stateMutability": "nonpayable",
      "type": "function"
    },
    {
      "constant": false,
      "inputs": [
        {
          "name": "from",
          "type": "address"
        },
        {
          "name": "to",
          "type": "address"
        },
        {
          "name": "amount",
          "type": "uint256"
        }
      ],
      "name": "transferFrom",
      "outputs": [
        {
          "name": "success",
          "type": "bool"
        }
      ],
      "payable": false,
      "stateMutability": "nonpayable",
      "type": "function"
    },
    {
      "constant": false,
      "inputs": [
        {
          "name": "spender",
          "type": "address"
        },
        {
          "name": "amount",
          "type": "uint256"
        }
      ],
      "name": "approve",
      "outputs": [
        {
          "name": "success",
          "type": "bool"
        }
      ],
      "payable": false,
      "stateMutability": "nonpayable",
      "type": "function"
    }
  ],
  "bytecode": "0x608060405234801561001057600080fd5b506040805190810160405280600a81526020017f6d696c6965546f6b656e000000000000000000000000000000000000000000008152506000908051906020019061005c9291906101d1565b506040805190810160405280600581526020017f4d494c4945000000000000000000000000000000000000000000000000000000815250600190805190602001906100a89291906101d1565b506012600260006101000a81548160ff021916908360ff1602179055506000600560006101000a81548173ffffffffffffffffffffffffffffffffffffffff021916908373ffffffffffffffffffffffffffffffffffffffff1602179055506000620f424090508060046000600560009054906101000a900473ffffffffffffffffffffffffffffffffffffffff1673ffffffffffffffffffffffffffffffffffffffff1673ffffffffffffffffffffffffffffffffffffffff1681526020019081526020016000208190555080600360008282540192505081905550600354600460003373ffffffffffffffffffffffffffffffffffffffff1673ffffffffffffffffffffffffffffffffffffffff1681526020019081526020016000208190555050610276565b828054600181600116156101000203166002900490600052602060002090601f016020900481019282601f1061021257805160ff1916838001178555610240565b82800160010185558215610240579182015b8281111561023f578251825591602001919060010190610224565b5b50905061024d9190610251565b5090565b61027391905b8082111561026f576000816000905550600101610257565b5090565b90565b610b3f806102856000396000f3fe60806040526004361061008e576000357c0100000000000000000000000000000000000000000000000000000000900463ffffffff16806306fdde0314610093578063095ea7b31461012357806318160ddd1461019657806323b872dd146101c1578063313ce5671461025457806370a082311461028557806395d89b41146102ea578063a9059cbb1461037a575b600080fd5b34801561009f57600080fd5b506100a86103ed565b6040518080602001828103825283818151815260200191508051906020019080838360005b838110156100e85780820151818401526020810190506100cd565b50505050905090810190601f1680156101155780820380516001836020036101000a031916815260200191505b509250505060405180910390f35b34801561012f57600080fd5b5061017c6004803603604081101561014657600080fd5b81019080803573ffffffffffffffffffffffffffffffffffffffff1690602001909291908035906020019092919050505061048b565b604051808215151515815260200191505060405180910390f35b3480156101a257600080fd5b506101ab61057d565b6040518082815260200191505060405180910390f35b3480156101cd57600080fd5b5061023a600480360360608110156101e457600080fd5b81019080803573ffffffffffffffffffffffffffffffffffffffff169060200190929190803573ffffffffffffffffffffffffffffffffffffffff16906020019092919080359060200190929190505050610583565b604051808215151515815260200191505060405180910390f35b34801561026057600080fd5b50610269610825565b604051808260ff1660ff16815260200191505060405180910390f35b34801561029157600080fd5b506102d4600480360360208110156102a857600080fd5b81019080803573ffffffffffffffffffffffffffffffffffffffff169060200190929190505050610838565b6040518082815260200191505060405180910390f35b3480156102f657600080fd5b506102ff610881565b6040518080602001828103825283818151815260200191508051906020019080838360005b8381101561033f578082015181840152602081019050610324565b50505050905090810190601f16801561036c5780820380516001836020036101000a031916815260200191505b509250505060405180910390f35b34801561038657600080fd5b506103d36004803603604081101561039d57600080fd5b81019080803573ffffffffffffffffffffffffffffffffffffffff1690602001909291908035906020019092919050505061091f565b604051808215151515815260200191505060405180910390f35b60008054600181600116156101000203166002900480601f0160208091040260200160405190810160405280929190818152602001828054600181600116156101000203166002900480156104835780601f1061045857610100808354040283529160200191610483565b820191906000526020600020905b81548152906001019060200180831161046657829003601f168201915b505050505081565b600081600660003373ffffffffffffffffffffffffffffffffffffffff1673ffffffffffffffffffffffffffffffffffffffff16815260200190815260200160002060008573ffffffffffffffffffffffffffffffffffffffff1673ffffffffffffffffffffffffffffffffffffffff168152602001908152602001600020819055508273ffffffffffffffffffffffffffffffffffffffff163373ffffffffffffffffffffffffffffffffffffffff167f8c5be1e5ebec7d5bd14f71427d1e84f3dd0314c0f7b2291e5b200ac8c7c3b925846040518082815260200191505060405180910390a36001905092915050565b60035481565b600081600460008673ffffffffffffffffffffffffffffffffffffffff1673ffffffffffffffffffffffffffffffffffffffff1681526020019081526020016000205410158015610650575081600660008673ffffffffffffffffffffffffffffffffffffffff1673ffffffffffffffffffffffffffffffffffffffff16815260200190815260200160002060003373ffffffffffffffffffffffffffffffffffffffff1673ffffffffffffffffffffffffffffffffffffffff1681526020019081526020016000205410155b801561065c5750600082115b80156106e75750600460008473ffffffffffffffffffffffffffffffffffffffff1673ffffffffffffffffffffffffffffffffffffffff1681526020019081526020016000205482600460008673ffffffffffffffffffffffffffffffffffffffff1673ffffffffffffffffffffffffffffffffffffffff1681526020019081526020016000205401115b156108195781600460008673ffffffffffffffffffffffffffffffffffffffff1673ffffffffffffffffffffffffffffffffffffffff1681526020019081526020016000206000828254039250508190555081600660008673ffffffffffffffffffffffffffffffffffffffff1673ffffffffffffffffffffffffffffffffffffffff16815260200190815260200160002060003373ffffffffffffffffffffffffffffffffffffffff1673ffffffffffffffffffffffffffffffffffffffff1681526020019081526020016000206000828254039250508190555081600460008573ffffffffffffffffffffffffffffffffffffffff1673ffffffffffffffffffffffffffffffffffffffff168152602001908152602001600020600082825401925050819055506001905061081e565b600090505b9392505050565b600260009054906101000a900460ff1681565b6000600460008373ffffffffffffffffffffffffffffffffffffffff1673ffffffffffffffffffffffffffffffffffffffff168152602001908152602001600020549050919050565b60018054600181600116156101000203166002900480601f0160208091040260200160405190810160405280929190818152602001828054600181600116156101000203166002900480156109175780601f106108ec57610100808354040283529160200191610917565b820191906000526020600020905b8154815290600101906020018083116108fa57829003601f168201915b505050505081565b600081600460003373ffffffffffffffffffffffffffffffffffffffff1673ffffffffffffffffffffffffffffffffffffffff16815260200190815260200160002054101580156109705750600082115b80156109fb5750600460008473ffffffffffffffffffffffffffffffffffffffff1673ffffffffffffffffffffffffffffffffffffffff1681526020019081526020016000205482600460008673ffffffffffffffffffffffffffffffffffffffff1673ffffffffffffffffffffffffffffffffffffffff1681526020019081526020016000205401115b15610b085781600460003373ffffffffffffffffffffffffffffffffffffffff1673ffffffffffffffffffffffffffffffffffffffff1681526020019081526020016000206000828254039250508190555081600460008573ffffffffffffffffffffffffffffffffffffffff1673ffffffffffffffffffffffffffffffffffffffff168152602001908152602001600020600082825401925050819055508273ffffffffffffffffffffffffffffffffffffffff163373ffffffffffffffffffffffffffffffffffffffff167fddf252ad1be2c89b69c2b068fc378daa952ba7f163c4a11628f55a4df523b3ef846040518082815260200191505060405180910390a360019050610b0d565b600090505b9291505056fea165627a7a723058209cd9d50a004e63531dd1a46b5f571cf783c346aa53e2fff2e54df2afce22bfb20029",
  "source": "pragma solidity ^0.5.0;\ncontract milieToken { \n   \nstring public name; \nstring public symbol; \nuint8 public decimals;\nuint256 public totalSupply;\n \n// Balances for each account\nmapping(address => uint256) balances;\naddress devAddress;\n// Events\nevent Approval(address indexed owner, address indexed spender, uint256 value);\nevent Transfer(address indexed from, address indexed to, uint256 value);\n \n// Owner of account approves the transfer of an amount to another account\nmapping(address => mapping (address => uint256)) allowed;\n// This is the constructor and automatically runs when the smart contract is uploaded\nconstructor() public { \n    name = \"milieToken\"; \n    symbol = \"MILIE\"; // set the Symbol here\n    decimals = 18; // set the number of decimals\n    devAddress=0x0000000000000000000000000000000000000000; // Add the address that you will distribute tokens from here\n    uint initialBalance=1000000; // 1M tokens\n    balances[devAddress]=initialBalance;\n    totalSupply+=initialBalance; // Set the total suppy\n    balances[msg.sender]= totalSupply;\n}\nfunction balanceOf(address owner) public view returns (uint256 balance) {\n    return balances[owner];\n}\n// Transfer the balance from owner's account to another account\nfunction transfer(address to, uint256 amount) public returns (bool success) {\n    if (balances[msg.sender] >= amount \n        && amount > 0\n        && balances[to] + amount > balances[to]) {\n        balances[msg.sender] -= amount;\n        balances[to] += amount;\n        emit Transfer(msg.sender, to, amount); \n        return true;\n    } else {\n        return false;\n    }\n}\nfunction transferFrom(\n    address from,\n    address to,\n    uint256 amount\n) public returns (bool success) {\n    if (balances[from] >= amount\n        && allowed[from][msg.sender] >= amount\n        && amount > 0\n        && balances[to] + amount > balances[to]) {\n        balances[from] -= amount;\n        allowed[from][msg.sender] -= amount;\n        balances[to] += amount;\n        return true;\n    } else {\n        return false;\n    }\n}\n// Allow spender to withdraw from your account, multiple times, up to the value amount.\n// If this function is called again it overwrites the current allowance with value.\nfunction approve(address spender, uint256 amount) public returns (bool success) {\n    allowed[msg.sender][spender] = amount;\n    emit Approval(msg.sender, spender, amount);\n    return true;\n}\n}",
  "sourcePath": "/Users/vidyamahavadi/Ethereum/milieToken/contracts/milieToken.sol",
  "compiler": {
    "name": "solc",
    "version": "0.5.0+commit.1d4f565a.Emscripten.clang"
  },
  "schemaVersion": "3.0.2",
  "updatedAt": "2019-03-10T19:10:25.857Z",
  "devdoc": {
    "methods": {}
  },
  "userdoc": {
    "methods": {}
  }
}